{
  "address": "0xe7f1725E7734CE288F8367e1Bb143E90bb3F0512",
  "abi": [
    {
      "inputs": [
        {
          "internalType": "address",
          "name": "priceFeedAddress",
          "type": "address"
        }
      ],
      "stateMutability": "nonpayable",
      "type": "constructor"
    },
    {
      "inputs": [],
      "name": "FundMe__NotOwner",
      "type": "error"
    },
    {
      "stateMutability": "payable",
      "type": "fallback"
    },
    {
      "inputs": [],
      "name": "MINIMUM_USD",
      "outputs": [
        {
          "internalType": "uint256",
          "name": "",
          "type": "uint256"
        }
      ],
      "stateMutability": "view",
      "type": "function"
    },
    {
      "inputs": [],
      "name": "cheaperWithdraw",
      "outputs": [],
      "stateMutability": "payable",
      "type": "function"
    },
    {
      "inputs": [],
      "name": "fund",
      "outputs": [],
      "stateMutability": "payable",
      "type": "function"
    },
    {
      "inputs": [
        {
          "internalType": "uint256",
          "name": "index",
          "type": "uint256"
        }
      ],
      "name": "getFunders",
      "outputs": [
        {
          "internalType": "address",
          "name": "",
          "type": "address"
        }
      ],
      "stateMutability": "view",
      "type": "function"
    },
    {
      "inputs": [],
      "name": "getPriceFeed",
      "outputs": [
        {
          "internalType": "contract AggregatorV3Interface",
          "name": "",
          "type": "address"
        }
      ],
      "stateMutability": "view",
      "type": "function"
    },
    {
      "inputs": [],
      "name": "getVersion",
      "outputs": [
        {
          "internalType": "uint256",
          "name": "",
          "type": "uint256"
        }
      ],
      "stateMutability": "view",
      "type": "function"
    },
    {
      "inputs": [
        {
          "internalType": "address",
          "name": "funder",
          "type": "address"
        }
      ],
      "name": "getaddressToAmountFunded",
      "outputs": [
        {
          "internalType": "uint256",
          "name": "",
          "type": "uint256"
        }
      ],
      "stateMutability": "view",
      "type": "function"
    },
    {
      "inputs": [],
      "name": "geti_owner",
      "outputs": [
        {
          "internalType": "address",
          "name": "",
          "type": "address"
        }
      ],
      "stateMutability": "view",
      "type": "function"
    },
    {
      "inputs": [],
      "name": "withdraw",
      "outputs": [],
      "stateMutability": "nonpayable",
      "type": "function"
    },
    {
      "stateMutability": "payable",
      "type": "receive"
    }
  ],
  "transactionHash": "0x5b76ddb7e1d6d791d87c1d1a520fd265eb71469dd473dccb1171f447323173af",
  "args": [
    "0x5FbDB2315678afecb367f032d93F642f64180aa3"
  ],
  "numDeployments": 1,
  "solcInputHash": "80ebcb291b7f527ae4bc7ea7d893b8b6",
  "bytecode": "0x60a06040523480156200001157600080fd5b50604051620013e3380380620013e3833981810160405281019062000037919062000120565b3373ffffffffffffffffffffffffffffffffffffffff1660808173ffffffffffffffffffffffffffffffffffffffff1660601b8152505080600260006101000a81548173ffffffffffffffffffffffffffffffffffffffff021916908373ffffffffffffffffffffffffffffffffffffffff1602179055505062000152565b600080fd5b600073ffffffffffffffffffffffffffffffffffffffff82169050919050565b6000620000e882620000bb565b9050919050565b620000fa81620000db565b81146200010657600080fd5b50565b6000815190506200011a81620000ef565b92915050565b600060208284031215620001395762000138620000b6565b5b6000620001498482850162000109565b91505092915050565b60805160601c61125d62000186600039600081816103d10152818161043f015281816106f601526108ec015261125d6000f3fe60806040526004361061008a5760003560e01c80636b69a592116100595780636b69a5921461014d578063832b1d2c146101785780639e87a5cd146101b5578063b60d4288146101e0578063be2693f0146101ea57610099565b80630d8e6e2c146100a357806311aed7d5146100ce5780633a7b6c74146100f95780633ccfd60b1461013657610099565b36610099576100976101f4565b005b6100a16101f4565b005b3480156100af57600080fd5b506100b8610326565b6040516100c59190610b1e565b60405180910390f35b3480156100da57600080fd5b506100e36103cd565b6040516100f09190610b7a565b60405180910390f35b34801561010557600080fd5b50610120600480360381019061011b9190610bc6565b6103f5565b60405161012d9190610b7a565b60405180910390f35b34801561014257600080fd5b5061014b61043d565b005b34801561015957600080fd5b5061016261067d565b60405161016f9190610b1e565b60405180910390f35b34801561018457600080fd5b5061019f600480360381019061019a9190610c1f565b610682565b6040516101ac9190610b1e565b60405180910390f35b3480156101c157600080fd5b506101ca6106ca565b6040516101d79190610cab565b60405180910390f35b6101e86101f4565b005b6101f26106f4565b005b600161022b600260009054906101000a900473ffffffffffffffffffffffffffffffffffffffff163461098290919063ffffffff16565b101561026c576040517f08c379a000000000000000000000000000000000000000000000000000000000815260040161026390610d23565b60405180910390fd5b346000803373ffffffffffffffffffffffffffffffffffffffff1673ffffffffffffffffffffffffffffffffffffffff16815260200190815260200160002060008282546102ba9190610d72565b925050819055506001339080600181540180825580915050600190039060005260206000200160009091909190916101000a81548173ffffffffffffffffffffffffffffffffffffffff021916908373ffffffffffffffffffffffffffffffffffffffff160217905550565b6000600260009054906101000a900473ffffffffffffffffffffffffffffffffffffffff1673ffffffffffffffffffffffffffffffffffffffff166354fd4d506040518163ffffffff1660e01b815260040160206040518083038186803b15801561039057600080fd5b505afa1580156103a4573d6000803e3d6000fd5b505050506040513d601f19601f820116820180604052508101906103c89190610ddd565b905090565b60007f0000000000000000000000000000000000000000000000000000000000000000905090565b60006001828154811061040b5761040a610e0a565b5b9060005260206000200160009054906101000a900473ffffffffffffffffffffffffffffffffffffffff169050919050565b7f000000000000000000000000000000000000000000000000000000000000000073ffffffffffffffffffffffffffffffffffffffff163373ffffffffffffffffffffffffffffffffffffffff16146104c2576040517f579610db00000000000000000000000000000000000000000000000000000000815260040160405180910390fd5b60005b60018054905081101561056d576000600182815481106104e8576104e7610e0a565b5b9060005260206000200160009054906101000a900473ffffffffffffffffffffffffffffffffffffffff16905060008060008373ffffffffffffffffffffffffffffffffffffffff1673ffffffffffffffffffffffffffffffffffffffff1681526020019081526020016000208190555050808061056590610e39565b9150506104c5565b50600067ffffffffffffffff81111561058957610588610e82565b5b6040519080825280602002602001820160405280156105b75781602001602082028036833780820191505090505b50600190805190602001906105cd929190610a5e565b5060003373ffffffffffffffffffffffffffffffffffffffff16476040516105f490610ee2565b60006040518083038185875af1925050503d8060008114610631576040519150601f19603f3d011682016040523d82523d6000602084013e610636565b606091505b505090508061067a576040517f08c379a000000000000000000000000000000000000000000000000000000000815260040161067190610f43565b60405180910390fd5b50565b600181565b60008060008373ffffffffffffffffffffffffffffffffffffffff1673ffffffffffffffffffffffffffffffffffffffff168152602001908152602001600020549050919050565b6000600260009054906101000a900473ffffffffffffffffffffffffffffffffffffffff16905090565b7f000000000000000000000000000000000000000000000000000000000000000073ffffffffffffffffffffffffffffffffffffffff163373ffffffffffffffffffffffffffffffffffffffff1614610779576040517f579610db00000000000000000000000000000000000000000000000000000000815260040160405180910390fd5b600060018054806020026020016040519081016040528092919081815260200182805480156107fd57602002820191906000526020600020905b8160009054906101000a900473ffffffffffffffffffffffffffffffffffffffff1673ffffffffffffffffffffffffffffffffffffffff16815260200190600101908083116107b3575b5050505050905060005b815181101561088757600082828151811061082557610824610e0a565b5b6020026020010151905060008060008373ffffffffffffffffffffffffffffffffffffffff1673ffffffffffffffffffffffffffffffffffffffff1681526020019081526020016000208190555050808061087f90610e39565b915050610807565b50600067ffffffffffffffff8111156108a3576108a2610e82565b5b6040519080825280602002602001820160405280156108d15781602001602082028036833780820191505090505b50600190805190602001906108e7929190610a5e565b5060007f000000000000000000000000000000000000000000000000000000000000000073ffffffffffffffffffffffffffffffffffffffff164760405161092e90610ee2565b60006040518083038185875af1925050503d806000811461096b576040519150601f19603f3d011682016040523d82523d6000602084013e610970565b606091505b505090508061097e57600080fd5b5050565b60008061098e836109be565b90506000670de0b6b3a764000085836109a79190610f63565b6109b19190610fec565b9050809250505092915050565b6000808273ffffffffffffffffffffffffffffffffffffffff1663feaf968c6040518163ffffffff1660e01b815260040160a06040518083038186803b158015610a0757600080fd5b505afa158015610a1b573d6000803e3d6000fd5b505050506040513d601f19601f82011682018060405250810190610a3f9190611095565b5050509150506402540be40081610a569190611110565b915050919050565b828054828255906000526020600020908101928215610ad7579160200282015b82811115610ad65782518260006101000a81548173ffffffffffffffffffffffffffffffffffffffff021916908373ffffffffffffffffffffffffffffffffffffffff16021790555091602001919060010190610a7e565b5b509050610ae49190610ae8565b5090565b5b80821115610b01576000816000905550600101610ae9565b5090565b6000819050919050565b610b1881610b05565b82525050565b6000602082019050610b336000830184610b0f565b92915050565b600073ffffffffffffffffffffffffffffffffffffffff82169050919050565b6000610b6482610b39565b9050919050565b610b7481610b59565b82525050565b6000602082019050610b8f6000830184610b6b565b92915050565b600080fd5b610ba381610b05565b8114610bae57600080fd5b50565b600081359050610bc081610b9a565b92915050565b600060208284031215610bdc57610bdb610b95565b5b6000610bea84828501610bb1565b91505092915050565b610bfc81610b59565b8114610c0757600080fd5b50565b600081359050610c1981610bf3565b92915050565b600060208284031215610c3557610c34610b95565b5b6000610c4384828501610c0a565b91505092915050565b6000819050919050565b6000610c71610c6c610c6784610b39565b610c4c565b610b39565b9050919050565b6000610c8382610c56565b9050919050565b6000610c9582610c78565b9050919050565b610ca581610c8a565b82525050565b6000602082019050610cc06000830184610c9c565b92915050565b600082825260208201905092915050565b7f596f75206e65656420746f207370656e64206d6f726520455448210000000000600082015250565b6000610d0d601b83610cc6565b9150610d1882610cd7565b602082019050919050565b60006020820190508181036000830152610d3c81610d00565b9050919050565b7f4e487b7100000000000000000000000000000000000000000000000000000000600052601160045260246000fd5b6000610d7d82610b05565b9150610d8883610b05565b9250827fffffffffffffffffffffffffffffffffffffffffffffffffffffffffffffffff03821115610dbd57610dbc610d43565b5b828201905092915050565b600081519050610dd781610b9a565b92915050565b600060208284031215610df357610df2610b95565b5b6000610e0184828501610dc8565b91505092915050565b7f4e487b7100000000000000000000000000000000000000000000000000000000600052603260045260246000fd5b6000610e4482610b05565b91507fffffffffffffffffffffffffffffffffffffffffffffffffffffffffffffffff821415610e7757610e76610d43565b5b600182019050919050565b7f4e487b7100000000000000000000000000000000000000000000000000000000600052604160045260246000fd5b600081905092915050565b50565b6000610ecc600083610eb1565b9150610ed782610ebc565b600082019050919050565b6000610eed82610ebf565b9150819050919050565b7f43616c6c206661696c6564000000000000000000000000000000000000000000600082015250565b6000610f2d600b83610cc6565b9150610f3882610ef7565b602082019050919050565b60006020820190508181036000830152610f5c81610f20565b9050919050565b6000610f6e82610b05565b9150610f7983610b05565b9250817fffffffffffffffffffffffffffffffffffffffffffffffffffffffffffffffff0483118215151615610fb257610fb1610d43565b5b828202905092915050565b7f4e487b7100000000000000000000000000000000000000000000000000000000600052601260045260246000fd5b6000610ff782610b05565b915061100283610b05565b92508261101257611011610fbd565b5b828204905092915050565b600069ffffffffffffffffffff82169050919050565b61103c8161101d565b811461104757600080fd5b50565b60008151905061105981611033565b92915050565b6000819050919050565b6110728161105f565b811461107d57600080fd5b50565b60008151905061108f81611069565b92915050565b600080600080600060a086880312156110b1576110b0610b95565b5b60006110bf8882890161104a565b95505060206110d088828901611080565b94505060406110e188828901610dc8565b93505060606110f288828901610dc8565b92505060806111038882890161104a565b9150509295509295909350565b600061111b8261105f565b91506111268361105f565b9250827f7fffffffffffffffffffffffffffffffffffffffffffffffffffffffffffffff048211600084136000841316161561116557611164610d43565b5b817f800000000000000000000000000000000000000000000000000000000000000005831260008412600084131616156111a2576111a1610d43565b5b827f800000000000000000000000000000000000000000000000000000000000000005821260008413600084121616156111df576111de610d43565b5b827f7fffffffffffffffffffffffffffffffffffffffffffffffffffffffffffffff058212600084126000841216161561121c5761121b610d43565b5b82820290509291505056fea2646970667358221220e46c450940e4efb9a8b293450432b554dd302377582451c4bbe6e73a5be97b0564736f6c63430008080033",
  "devdoc": {
    "kind": "dev",
    "methods": {},
    "version": 1
  },
  "userdoc": {
    "kind": "user",
    "methods": {},
    "version": 1
  },
  "storageLayout": {
    "storage": [
      {
        "astId": 59,
        "contract": "contracts/FundMe.sol:FundMe",
        "label": "addressToAmountFunded",
        "offset": 0,
        "slot": "0",
        "type": "t_mapping(t_address,t_uint256)"
      },
      {
        "astId": 62,
        "contract": "contracts/FundMe.sol:FundMe",
        "label": "S_funders",
        "offset": 0,
        "slot": "1",
        "type": "t_array(t_address)dyn_storage"
      },
      {
        "astId": 70,
        "contract": "contracts/FundMe.sol:FundMe",
        "label": "priceFeed",
        "offset": 0,
        "slot": "2",
        "type": "t_contract(AggregatorV3Interface)45"
      }
    ],
    "types": {
      "t_address": {
        "encoding": "inplace",
        "label": "address",
        "numberOfBytes": "20"
      },
      "t_array(t_address)dyn_storage": {
        "base": "t_address",
        "encoding": "dynamic_array",
        "label": "address[]",
        "numberOfBytes": "32"
      },
      "t_contract(AggregatorV3Interface)45": {
        "encoding": "inplace",
        "label": "contract AggregatorV3Interface",
        "numberOfBytes": "20"
      },
      "t_mapping(t_address,t_uint256)": {
        "encoding": "mapping",
        "key": "t_address",
        "label": "mapping(address => uint256)",
        "numberOfBytes": "32",
        "value": "t_uint256"
      },
      "t_uint256": {
        "encoding": "inplace",
        "label": "uint256",
        "numberOfBytes": "32"
      }
    }
  }
}